:10000000A6C00000BFC00000BDC00000BBC0000013
:10001000B9C00000B7C00000B5C00000B3C0000008
:10002000B1C00000AFC00000ADC00000D8C40000E7
:10003000A9C00000A7C00000A5C00000A3C0000028
:10004000A1C000009FC000009DC000009BC0000038
:1000500099C0000097C0000095C0000093C0000048
:1000600091C000008FC000008DC000008BC0000058
:1000700089C00000240350004F004B004B00450096
:100080004E00200043004F004E00540052004F002D
:100090004C004C004500520000001C0348004F007B
:1000A00052004900200043004F002E002C004C005D
:1000B000540044002E000000040309040902290032
:1000C00001010080FA090400000203000000092178
:1000D0001101000122560007050203400005070533
:1000E000810340000512010002000000400D0F9244
:1000F0000000010102000105010905A1011500250B
:100100000135004501750195100509190129108176
:100110000205012507463B0175049501651409395F
:10012000814265009501810126FF0046FF000930EC
:100130000931093209357508950481020600FF0965
:1001400020950181020A212695089102C000112400
:100150001FBECFEFD2E0DEBFCDBF11E0A0E0B1E027
:10016000EAE3FEE002C005900D92AA31B107D9F78B
:1001700021E0AAE1B1E001C01D92AA33B207E1F784
:10018000C9D159C63DCF84B7877F84BF0FB6F894D5
:10019000A895809160008861809360001092600053
:1001A0000FBE80E890E00FB6F894809361009093C2
:1001B00061000FBE05C40895089542E360EC82E03B
:1001C00044D342E361EC81E040C3089582E090E0D3
:1001D0000895CF93DF93DC0188E0FD01982F119201
:1001E0009A95E9F712968C931297809106011396CF
:1001F0008C9313978091040114968C93149780919B
:10020000020115968C9315978091000116968C9398
:1002100016978091220190912301181619069CF4DB
:1002200088E0E5E2F1E001900D928A95E1F7809196
:100230002201909123010197909323018093220141
:10024000DF91CF910895ED0180912401813099F0E3
:1002500068F08230A1F088E0FE01A5E2B1E00190F3
:100260000D928A95E1F782E090E0E6CFAFDF9093C0
:100270001B0180931A0182E080932401ECCF8091CE
:100280001E0190911F0163E070E0C4D5885F9E4F0E
:10029000DC018C918C3009F4BFC008F069C0853056
:1002A00009F4A2C008F04BC0823009F446C008F03F
:1002B0003EC0882309F493C0813009F492C0E091D4
:1002C0001C01F0911D013196F0931D01E0931C017A
:1002D00020911E0130911F01C90163E070E09AD5A1
:1002E000885F9E4FDC0111968D919C918E179F0720
:1002F00050F42F5F3F4F30931F0120931E01109247
:100300001D0110921C0180911E0190911F01069702
:100310000CF4A1CF80911A0190911B0190931F01C1
:1003200080931E0110921D0110921C0194CF833006
:1003300009F45BC0843019F61C821B82C0CF883060
:1003400009F459C048F4863009F452C0873009F0E6
:10035000B6CF8FEF8C834AC08A3009F451C008F4BD
:1003600054C08FEF90E09093070180930601A7CFD0
:10037000833109F46DC0D0F48F3009F459C068F4AA
:100380008D3009F450C08E3009F099CF8FEF90E096
:10039000909303018093020192CF813109F462C0EE
:1003A00008F451C088819981816055C0873109F472
:1003B0005DC050F4843109F451C0853109F07FCF1C
:1003C00088819981826047C0893109F457C008F457
:1003D00051C08A3109F073CF86E08A8370CF1C82C6
:1003E0006ECF8FEF8C836BCF1C828FEF8B8367CFA9
:1003F0008FEF8C83A2CF10920501109204015FCF82
:1004000010920701109206015ACF8FEF90E090935F
:1004100005018093040153CF80E890E09093070199
:1004200080930601F4CF109203011092020147CF8E
:1004300080E890E090930301809302019093010182
:10044000809300013CCF109201011092000137CF40
:100450008881998184609983888331CF888199814B
:100460008064F9CF888199818860F5CF88819981EE
:100470008062F1CF888199819260EDCF88819981E6
:100480009061E9CFCF93DF93CDB7DEB728970FB652
:10049000F894DEBF0FBECDBF80913101843089F565
:1004A00082E08093E9008091E80082FF12C0809191
:1004B000E80085FF09C050E040E067E070E0CE0151
:1004C0000196BCD08111F7CF8091E8008B778093A3
:1004D000E80081E08093E9008091E80080FF11C08E
:1004E000CE01019676DE50E040E068E070E0CE019B
:1004F000019656D08111F7CF8091E8008E778093D6
:10050000E80028960FB6F894DEBF0FBECDBFDF918E
:10051000CF91089538DE7894B5DF61D4FDCF292FCF
:1005200033272330310521F158F42130310599F07A
:1005300022303105C1F090E080E030E020E00FC0D3
:100540002132310541F122323105A9F786E590E0EB
:1005500027EF30E004C082E190E025EE30E0FA01C0
:1005600031832083089589E290E02CEB30E0F7CFCF
:1005700099278130910561F028F00297E1F6E4E7D0
:10058000F0E002C0E8EBF0E0849190E09F01E7CF5B
:10059000EAE9F0E0F9CF89E090E02EEC30E0DFCF3F
:1005A000AF92BF92CF92DF92FF920F931F93CF93A0
:1005B000DF936C01EB018A019BD1F82E811124C0DD
:1005C0000115110539F0F80180819181C81BD90B03
:1005D000C80ED91EB12CA12C2097B1F08091E80053
:1005E00085FD22C08091E8008E778093E800F7D3E4
:1005F00001151105A1F0F80180819181A80EB91EA5
:10060000B182A08285E0F82E8F2DDF91CF911F91CE
:100610000F91FF90DF90CF90BF90AF90089568D179
:100620008823D1F2F82EF0CFF60181916F018093EB
:10063000F1002197FFEFAF1ABF0ACECFAF92BF9262
:10064000CF92DF92FF920F931F93CF93DF936C01B2
:10065000EB018A014DD1F82E811124C0011511053D
:1006600039F0F80180819181C81BD90BC80ED91EC1
:10067000B12CA12C2097B1F08091E80085FD22C01B
:100680008091E8008B778093E800A9D301151105CC
:10069000A1F0F80180819181A80EB91EB182A082DB
:1006A00085E0F82E8F2DDF91CF911F910F91FF9054
:1006B000DF90CF90BF90AF9008951AD18823D1F2E8
:1006C000F82EF0CF8091F100F60181936F01219710
:1006D000FFEFAF1ABF0ACECFFC0180913801909195
:1006E000390186179707A0F06115710529F49091DB
:1006F000E8009E779093E80090E06115710551F451
:10070000911108C08091E80082FF32C080E0089516
:10071000BC01F2CF809131018823B1F18530B1F174
:100720008091E80083FD2EC08091E80082FDEACF31
:100730008091E80080FFE1CF2091F20030E0611568
:10074000710519F02034310558F091E0203431055D
:1007500009F090E02091E8002E772093E800CDCFBB
:1007600081918093F100615071092F5F3F4FE7CF76
:1007700080913101882341F0853041F08091E8007B
:1007800083FFC0CF81E0089582E0089583E008955B
:10079000FC01809138019091390186179707A0F0EC
:1007A0006115710529F48091E8008E778093E80047
:1007B00090E06115710551F4911108C08091E80035
:1007C00082FF33C080E00895BC01F2CF80913101F7
:1007D0008823B9F18530B9F18091E80083FD2FC0FD
:1007E0008091E80082FDEACF8091E80080FFE1CFB0
:1007F0002091F20030E06115710519F020343105C7
:1008000058F091E02034310509F090E08091E80043
:100810008E778093E800CDCF84918093F10031965C
:10082000615071092F5F3F4FE6CF809131018823DE
:1008300041F0853041F08091E80083FFBFCF81E037
:10084000089582E0089583E00895982F953028F068
:100850008F708093E90081E008959093E900242F40
:10086000762F50E0981731F07091EC002091ED0058
:100870005091F00021FD02C09F5FE8CF3091EB0066
:100880003E7F3093EB003091ED003D7F3093ED00E3
:100890003091EB0031603093EB007093EC002093CB
:1008A000ED005093F0002091EE0027FDE5CF80E0B1
:1008B00008958091320187FF13C08091E80082FF84
:1008C00006C08091E8008B778093E80004C0809197
:1008D00031018111F2CF0895809131018823D9F33C
:1008E0008091E80080FFF8CF8091E8008E77ECCF10
:1008F0002091E4003091E50085E69091EC0090FFB6
:1009000006C09091E80090FF06C080E008959091A5
:10091000E80092FDFACF90913101992391F0953042
:1009200091F09091EB0095FD10C04091E400509142
:10093000E5002417350709F381509A01F1F684E0A8
:10094000089582E0089583E0089581E0089541D0FC
:1009500043D08091D8008F778093D8008091D800C1
:1009600080688093D8008091D8008F7D8093D800D4
:1009700084E089BD86E089BD09B400FEFDCF1092F8
:10098000310110922D0110922F0110922E0142E39D
:1009900060E080E05ADF8091E1008E7F8093E1008B
:1009A0008091E20081608093E2008091E2008860A3
:1009B0008093E2008091E0008E7F8093E0000895B4
:1009C000E3E6F0E080818E7F808381E080933001D8
:1009D000BECF1092E20008951092E10008951F9298
:1009E0000F920FB60F9211242F933F934F935F9363
:1009F0006F937F938F939F93AF93BF93EF93FF93E7
:100A00008091E10082FF0AC08091E20082FF06C06F
:100A10008091E1008B7F8093E100E0D18091E10043
:100A200080FF17C08091E20080FF13C08091E20038
:100A30008E7F8093E2008091E20080618093E200EB
:100A40008091D80080628093D80019BC1092310147
:100A5000B3DB8091E10084FF27C08091E20084FF36
:100A600023C084E089BD86E089BD09B400FEFDCFC6
:100A70008091D8008F7D8093D8008091E1008F7E97
:100A80008093E1008091E2008F7E8093E20080916C
:100A9000E20081608093E20080912D018823D9F1EA
:100AA00084E08093310187DB8091E10083FF22C0E5
:100AB0008091E20083FF1EC08091E100877F8093D8
:100AC000E10082E08093310110922D018091E100DC
:100AD0008E7F8093E1008091E2008E7F8093E20020
:100AE0008091E20080618093E20042E360E080E078
:100AF000ACDE74D1FF91EF91BF91AF919F918F9137
:100B00007F916F915F914F913F912F910F900FBE09
:100B10000F901F9018958091E30087FD02C081E03F
:100B2000C0CF83E0BECF1F93CF93DF93CDB7DEB7A7
:100B3000AA970FB6F894DEBF0FBECDBFE2E3F1E097
:100B40008091F100819321E0EA33F207C9F73DDBA0
:100B50008091E80083FF10C08091320190913301B1
:100B6000953009F4D8C000F5913009F48BC008F431
:100B700061C0933009F486C08091E80083FF0AC009
:100B80008091E800877F8093E8008091EB0080628D
:100B90008093EB00AA960FB6F894DEBF0FBECDBFD0
:100BA000DF91CF911F910895983009F4ECC09930EE
:100BB00009F4F6C0963001F780588230E8F680914B
:100BC0003401909135018C3D23E0920709F0C6C0B5
:100BD00083E08A838AE289834FB7F894DE01139613
:100BE00020E03EE051E2E32FF0E050935700E49123
:100BF00020FF03C0E295EF703F5FEF708E2F90E013
:100C0000EA3008F4A9C0C7968D939D932F5F2431D5
:100C100051F74FBF8091E800877F8093E8006AE238
:100C200070E0CE01019658DD8091E8008B778093CB
:100C3000E800A2CF803899F0823809F09DCF8091EA
:100C400036018F70853008F097CF8093E90080914E
:100C5000EB0085FB882780F91092E90006C080919F
:100C60002E0190912F01911182609091E800977F61
:100C70009093E8008093F1001092F1008091E800D9
:100C80008E7732C0282F2D7F09F076CF8823E9F0A8
:100C9000823009F071CF80913401811120C08091A0
:100CA00036018F702FEF280F243008F065CF809326
:100CB000E9002091EB0020FF12C09330C9F480912D
:100CC000EB0080628093EB000AC080913401813098
:100CD00009F052CF933009F080E080932F011092F9
:100CE000E9008091E800877F8093E800E2DD44CF4F
:100CF0009091EB0090619093EB0021E030E001C017
:100D0000220F8A95EAF72093EA001092EA00809178
:100D1000EB008860D7CF81112FCF109134011F775E
:100D20008091E3008078812B8093E3008091E8003C
:100D3000877F8093E800BDDD8091E80080FFFCCFD5
:100D40008091E30080688093E30083E0111101C08B
:100D500082E08093310110CFC09656CF609136016A
:100D600070913701AE014F5F5F4FD9DBBC01892B1A
:100D700009F402CF9091E800977F9093E800898171
:100D80009A8106DD51CF803809F0F6CE8091E800D7
:100D9000877F8093E80080912D018093F1006ECFD2
:100DA0008111EACE90913401923008F0E5CE809125
:100DB000E800877F8093E80090932D017ADD809191
:100DC0002D01882329F084E080933101F6D9D4CE17
:100DD0008091E30087FDF7CF81E0F6CF0895CF93B0
:100DE00080913101882391F0C091E900CF7080910A
:100DF000EC0080FD0DC080E0C82B1092E9008091CE
:100E0000E80083FD90DECF70C093E900CF91089594
:100E100080E8F2CF0024552704C0080E591F880F20
:100E2000991F009729F076956795B8F37105B9F782
:0A0E3000802D952F0895F894FFCF50
:100E3A0080008000800080001500001300001B0065
:0A0E4A00001405001305001C1E0033
:00000001FF
